:100000000C945D000C9485000C9485000C94850084
:100010000C9485000C9485000C9485000C9485004C
:100020000C9485000C9485000C9485000C94C702F8
:100030000C9485000C9485000C9485000C9485002C
:100040000C9425020C9485000C9495020C946F027C
:100050000C9485000C9485000C9485000C9485000C
:100060000C9485000C94850000000008000201003B
:100070000003040700000000000000000000000072
:10008000250028002B0000000000240027002A0083
:10009000040404040404040402020202020203032E
:1000A0000303030301020408102040800102040836
:1000B0001020010204081020A80411241FBECFEF55
:1000C000D8E0DEBFCDBF11E0A0E0B1E0EAE7FAE0A2
:1000D00002C005900D92AA3DB107D9F722E0AAED22
:1000E000B1E001C01D92A53AB207E1F710E0CDE5FD
:1000F000D0E004C02197FE010E943005CC35D10725
:10010000C9F70E942B030C943B050C94000090E06F
:10011000FC01EC55FF4F2491FC01E057FF4F849107
:10012000882399F090E0880F991FFC01EA57FF4F50
:10013000A591B491FC01E458FF4F859194918FB73C
:10014000F894EC91E22BEC938FBF089590E0FC01C2
:10015000E859FF4F2491FC01EC55FF4F3491FC010D
:10016000E057FF4FE491EE2309F43CC0222339F11C
:10017000233091F038F42130A9F0223001F584B514
:100180008F7D12C0273091F02830A1F02430B9F4CF
:10019000809180008F7D03C0809180008F77809355
:1001A00080000DC084B58F7784BD09C08091B000F8
:1001B0008F7703C08091B0008F7D8093B000F0E016
:1001C000EE0FFF1FE458FF4FA591B4919FB7F8942D
:1001D000611104C08C913095382302C0EC913E2B04
:1001E0003C939FBF0895CF92DF92EF92FF920F93BF
:1001F0001F93CF93DF936C017A018B01C0E0D0E0B5
:10020000CE15DF0581F0D8016D918D01D601ED91FC
:10021000FC910190F081E02DC6010995892B11F028
:100220002196EECF7E01C701DF91CF911F910F91F3
:10023000FF90EF90DF90CF900895089580E090E0D8
:100240000895FC01538D448D252F30E0842F90E0DC
:10025000821B930B541710F0CF96089501970895C1
:10026000FC01918D828D981761F0828DDF01A80FBE
:10027000B11D5D968C91928D9F5F9F73928F90E0E0
:1002800008958FEF9FEF0895FC01918D828D98174F
:1002900031F0828DE80FF11D858D90E008958FEF8C
:1002A0009FEF0895FC01918D228D892F90E0805C55
:1002B0009F4F821B91098F739927089588E092E0E0
:1002C0000E94520121E0892B09F420E0822F089539
:1002D000FC01848DDF01A80FB11DA35ABF4F2C91E3
:1002E000848D90E001968F739927848FA689B789B2
:1002F0002C93A089B1898C91837080648C93938DA9
:10030000848D981306C00288F389E02D80818F7D4B
:1003100080830895EF92FF920F931F93CF93DF9303
:10032000EC0181E0888F9B8D8C8D981305C0E88946
:10033000F989808185FD26C0F62E0B8D10E00F5FB8
:100340001F4F0F731127E02E8C8DE8120CC00FB6D3
:1003500007FCFACFE889F989808185FFF5CFCE01C6
:100360000E946801F1CF8B8DFE01E80FF11DE35A69
:10037000FF4FF0829FB7F8940B8FEA89FB89808149
:1003800080620AC09FB7F894EE89FF896083E8898C
:10039000F98980818370806480839FBF81E090E0D1
:1003A000DF91CF911F910F91FF90EF900895CF9320
:1003B000DF93EC01888D8823C9F0EA89FB8980816D
:1003C00085FD05C0A889B9898C9186FD0FC00FB63F
:1003D00007FCF5CF808185FFF2CFA889B9898C9180
:1003E00085FFEDCFCE010E946801E7CFDF91CF916D
:1003F000089580E090E0892B29F00E945E01811130
:100400000C9400000895009769F0FC010190002011
:10041000E9F73197AF01481B590BBC0188E092E026
:100420000C94F30080E090E00895CF93DF930E9456
:100430000302EC0182E191E00E9403028C0F9D1FF8
:10044000DF91CF9108950E9436051F920F920FB64B
:100450000F9211242F933F938F939F93AF93BF934A
:100460008091040290910502A0910602B0910702CA
:100470003091030223E0230F2D3720F40196A11DB4
:10048000B11D05C026E8230F0296A11DB11D2093C2
:1004900003028093040290930502A0930602B09396
:1004A00007028091FF0190910002A0910102B0919A
:1004B00002020196A11DB11D8093FF0190930002DD
:1004C000A0930102B0930202BF91AF919F918F91CF
:1004D0003F912F910F900FBE0F901F9018951F9274
:1004E0000F920FB60F9211242F933F934F935F9368
:1004F0006F937F938F939F93AF93BF93EF93FF93EC
:1005000088E092E00E946801FF91EF91BF91AF9166
:100510009F918F917F916F915F914F913F912F911B
:100520000F900FBE0F901F9018951F920F920FB64D
:100530000F9211242F938F939F93EF93FF93E0914A
:100540001802F09119028081E0911E02F0911F02C1
:1005500082FD12C09081809121028F5F8F73209164
:100560002202821751F0E0912102F0E0E85FFD4F96
:10057000958F8093210201C08081FF91EF919F911F
:100580008F912F910F900FBE0F901F9018951F9273
:100590000F920FB60F9211242F933F938F939F9337
:1005A000EF93FF938091FE0187FF05C010928500B5
:1005B0001092840005C08091FE0187FD8091FE01AC
:1005C0008091FE018F5F8093FE018091FE0187FF85
:1005D00020C08091FE018C30E4F4209184003091A1
:1005E00085008091FE01082E000C990BFC01EE0F96
:1005F000FF1F8E0F9F1FFC01E652FE4F81819281EB
:10060000820F931F90938900809388008091FE0150
:1006100017C08091840090918500049680349C4995
:1006200018F480E49CE905C08091840090918500D5
:10063000049690938900809388008FEF8093FE0149
:10064000FF91EF919F918F913F912F910F900FBE4E
:100650000F901F901895CF93DF93CDB7DEB7A1977A
:100660000FB6F894DEBF0FBECDBF789484B582601C
:1006700084BD84B5816084BD85B5826085BD85B546
:10068000816085BD80916E00816080936E001092C4
:10069000810080918100826080938100809181003F
:1006A00081608093810080918000816080938000D0
:1006B0008091B10084608093B1008091B00081602E
:1006C0008093B00080917A00846080937A0080915A
:1006D0007A00826080937A0080917A0081608093B2
:1006E0007A0080917A00806880937A001092C1002D
:1006F000E0911802F091190282E08083E0911402E7
:10070000F09115021082E0911602F09117028FEC21
:10071000808310922002E0911C02F0911D0286E07D
:100720008083E0911A02F0911B02808180618083B6
:10073000E0911A02F0911B02808188608083E09131
:100740001A02F0911B02808180688083E0911A0276
:10075000F0911B0280818F7D808387E00E9487005B
:1007600084E00E94870085E191E00E94150289E003
:10077000482E512C612C712C9AE0892E912CA12CA1
:10078000B12C2DE6222E20E0322E88E092E00E944D
:100790005201892B09F4D9C088E092E00E9430010F
:1007A000182F80ED810F8A3008F0A7C0812F110F1C
:1007B000990BAA0BBB0B9C01AD01205331094109D8
:1007C0005109AFEFB0E00E94F404A30192010E942E
:1007D000D50469017A01890185E00E948700C1146E
:1007E000D10411F460E004C00F3F110529F461E069
:1007F00085E00E94A60042C0F10184918330F9F0A7
:1008000048F48130B9F08230A1F584B5806284BDAE
:10081000C8BC34C08730E9F0883019F1843049F51C
:1008200080918000806280938000D0928B00C09283
:100830008A0024C084B5806884BDC7BC1FC0809175
:100840008000806880938000D0928900C0928800E8
:1008500015C08091B00080688093B000C092B30052
:100860000DC08091B00080628093B000C092B4004F
:1008700005C0003811050CF0BACFB4CF82E791E083
:100880000E941502F7FE20C06DE288E092E00E940F
:100890008A0122273327A9012C193D094E095F0936
:1008A00019A2CE0181967C01CA01B901A50194016A
:1008B0000E94FF04605DF70162937F0121153105FD
:1008C0004105510589F715C0A701960119A2CE016E
:1008D00081967C01CA01B901A50194010E94FF041F
:1008E000605DF70162937F012115310541055105D6
:1008F00089F7C7010E94030224C01B3251F48AE920
:1009000091E00E94150261E087E00E94A60060E08D
:100910000BC01D3269F48AE991E00E94150260E083
:1009200087E00E94A60061E087E00E94A6000DC05B
:100930008BEB91E00E940302612F88E092E00E941D
:100940008A0182E191E00E9403020E94F9011DCF19
:10095000E8E0F2E01382128288EE93E0A0E0B0E0DB
:1009600084839583A683B78384E091E09183808319
:1009700085EC90E09587848784EC90E09787868764
:1009800080EC90E0918B808B81EC90E0938B828B5C
:1009900082EC90E0958B848B86EC90E0978B868B35
:1009A000118E128E138E148E0895052E97FB1EF451
:1009B00000940E94EC0457FD07D00E94FF0407FC3E
:1009C00003D04EF40C94EC0450954095309521954D
:1009D0003F4F4F4F5F4F089590958095709561956B
:1009E0007F4F8F4F9F4F08950E942105A59F900D27
:1009F000B49F900DA49F800D911D11240895A1E234
:100A00001A2EAA1BBB1BFD010DC0AA1FBB1FEE1F88
:100A1000FF1FA217B307E407F50720F0A21BB30BD3
:100A2000E40BF50B661F771F881F991F1A9469F74F
:100A300060957095809590959B01AC01BD01CF01AB
:100A40000895A29FB001B39FC001A39F700D811DA7
:100A50001124911DB29F700D811D1124911D0895C7
:100A6000EE0FFF1F0590F491E02D099481E090E0D6
:0A0A7000F8940C943B05F894FFCFB6
:100A7A00000000008A01F3002101D7015201300170
:100A8A0044010D0A0020506172612073656C656330
:100A9A0063696F6E61206C612076656C6F6369644F
:100AAA0061642064656C206D6F746F722028302D2C
:100ABA0039292E20506172612073656C6563636900
:100ACA006F6E6172206C6120646972656363696F1D
:100ADA006E20696E74726F64756365202B203020F6
:100AEA002D0020456C2076616C6F7220646520763B
:100AFA00656C6F636964616420696E74726F647592
:100B0A006369646F2065733A200020476972616ED9
:100B1A00646F20656E2073656E7469646F20686FF8
:100B2A00726172696F202E2E2E2E0020436172612F
:100B3A0063746572206E6F207265636F6E6F63698E
:0A0B4A00646F2E2045524F52000048
:00000001FF
